{"abi":[{"type":"constructor","inputs":[],"stateMutability":"nonpayable"},{"type":"function","name":"allowance","inputs":[{"name":"","type":"address","internalType":"address"},{"name":"","type":"address","internalType":"address"}],"outputs":[{"name":"","type":"uint256","internalType":"uint256"}],"stateMutability":"pure"},{"type":"function","name":"approve","inputs":[{"name":"","type":"address","internalType":"address"},{"name":"","type":"uint256","internalType":"uint256"}],"outputs":[{"name":"","type":"bool","internalType":"bool"}],"stateMutability":"pure"},{"type":"function","name":"balanceOf","inputs":[{"name":"","type":"address","internalType":"address"}],"outputs":[{"name":"","type":"uint256","internalType":"uint256"}],"stateMutability":"view"},{"type":"function","name":"base","inputs":[],"outputs":[{"name":"","type":"int256","internalType":"int256"}],"stateMutability":"view"},{"type":"function","name":"decimals","inputs":[],"outputs":[{"name":"","type":"uint8","internalType":"uint8"}],"stateMutability":"pure"},{"type":"function","name":"downgradeTo","inputs":[{"name":"to","type":"address","internalType":"address"},{"name":"amount","type":"uint256","internalType":"uint256"}],"outputs":[],"stateMutability":"nonpayable"},{"type":"function","name":"name","inputs":[],"outputs":[{"name":"","type":"string","internalType":"string"}],"stateMutability":"pure"},{"type":"function","name":"rate","inputs":[],"outputs":[{"name":"","type":"int256","internalType":"int256"}],"stateMutability":"view"},{"type":"function","name":"realtimeBalanceOf","inputs":[{"name":"","type":"address","internalType":"address"},{"name":"ts","type":"uint256","internalType":"uint256"}],"outputs":[{"name":"available","type":"int256","internalType":"int256"},{"name":"","type":"uint256","internalType":"uint256"},{"name":"","type":"uint256","internalType":"uint256"}],"stateMutability":"view"},{"type":"function","name":"realtimeBalanceOfNow","inputs":[{"name":"","type":"address","internalType":"address"}],"outputs":[{"name":"available","type":"int256","internalType":"int256"},{"name":"","type":"uint256","internalType":"uint256"},{"name":"","type":"uint256","internalType":"uint256"},{"name":"timestamp","type":"uint256","internalType":"uint256"}],"stateMutability":"view"},{"type":"function","name":"setStream","inputs":[{"name":"_base","type":"int256","internalType":"int256"},{"name":"_rate","type":"int256","internalType":"int256"},{"name":"_t0","type":"uint256","internalType":"uint256"}],"outputs":[],"stateMutability":"nonpayable"},{"type":"function","name":"symbol","inputs":[],"outputs":[{"name":"","type":"string","internalType":"string"}],"stateMutability":"pure"},{"type":"function","name":"t0","inputs":[],"outputs":[{"name":"","type":"uint256","internalType":"uint256"}],"stateMutability":"view"},{"type":"function","name":"totalSupply","inputs":[],"outputs":[{"name":"","type":"uint256","internalType":"uint256"}],"stateMutability":"pure"},{"type":"function","name":"transfer","inputs":[{"name":"","type":"address","internalType":"address"},{"name":"","type":"uint256","internalType":"uint256"}],"outputs":[{"name":"","type":"bool","internalType":"bool"}],"stateMutability":"pure"},{"type":"function","name":"transferFrom","inputs":[{"name":"","type":"address","internalType":"address"},{"name":"","type":"address","internalType":"address"},{"name":"","type":"uint256","internalType":"uint256"}],"outputs":[{"name":"","type":"bool","internalType":"bool"}],"stateMutability":"pure"},{"type":"event","name":"StreamSet","inputs":[{"name":"base","type":"int256","indexed":false,"internalType":"int256"},{"name":"rate","type":"int256","indexed":false,"internalType":"int256"},{"name":"t0","type":"uint256","indexed":false,"internalType":"uint256"}],"anonymous":false},{"type":"event","name":"Transfer","inputs":[{"name":"from","type":"address","indexed":true,"internalType":"address"},{"name":"to","type":"address","indexed":true,"internalType":"address"},{"name":"amount","type":"uint256","indexed":false,"internalType":"uint256"}],"anonymous":false}],"bytecode":{"object":"0x608080604052346020575f80555f6001554260025561064190816100258239f35b5f80fdfe60806040526004361015610011575f80fd5b5f3560e01c806306fdde03146104f4578063095ea7b314610487578063142c63141461042b57806318160ddd1461041157806323b872dd146103965780632c4e722e146103795780632ec8eec71461033a578063313ce5671461031f5780635001f3b51461030357806370a08231146102cb57806383ba25251461022657806395d89b41146101c0578063a9059cbb14610152578063c116690c14610135578063dd62ed3e146101085763eb3537cc146100c9575f80fd5b34610104576040366003190112610104576100e2610582565b5060606100f06024356105ae565b6040519081525f60208201525f6040820152f35b5f80fd5b3461010457604036600319011261010457610121610582565b5061012a610598565b5060206040515f8152f35b34610104575f366003190112610104576020600254604051908152f35b346101045760403660031901126101045761016b610582565b5060405162461bcd60e51b815260206004820152602660248201527f4d6f636b5375706572546f6b656e3a207472616e73666572206e6f74207375706044820152651c1bdc9d195960d21b6064820152608490fd5b34610104575f36600319011261010457604051604081019080821067ffffffffffffffff8311176102125761020e9160405260038152621354d560ea1b602082015260405191829182610558565b0390f35b634e487b7160e01b5f52604160045260245ffd5b346101045760403660031901126101045761023f610582565b6001600160a01b0316602435811561029157815f52600360205260405f208181540190556040519081527fddf252ad1be2c89b69c2b068fc378daa952ba7f163c4a11628f55a4df523b3ef60203392a3005b60405162461bcd60e51b81526020600482015260126024820152714d6f636b3a207a65726f206164647265737360701b6044820152606490fd5b34610104576020366003190112610104576001600160a01b036102ec610582565b165f526003602052602060405f2054604051908152f35b34610104575f3660031901126101045760205f54604051908152f35b34610104575f36600319011261010457602060405160128152f35b3461010457602036600319011261010457610353610582565b50608061035f426105ae565b6040519081525f60208201525f6040820152426060820152f35b34610104575f366003190112610104576020600154604051908152f35b34610104576060366003190112610104576103af610582565b506103b8610598565b5060405162461bcd60e51b815260206004820152602a60248201527f4d6f636b5375706572546f6b656e3a207472616e7366657246726f6d206e6f74604482015269081cdd5c1c1bdc9d195960b21b6064820152608490fd5b34610104575f3660031901126101045760206040515f8152f35b34610104576060366003190112610104577f47d7d8f745ea72dd8da6bfb398ae28c93ca7c082a99e485518212b29bc88d9e8606060043560243560443590825f55806001558160025560405192835260208301526040820152a1005b34610104576040366003190112610104576104a0610582565b5060405162461bcd60e51b815260206004820152602560248201527f4d6f636b5375706572546f6b656e3a20617070726f7665206e6f7420737570706044820152641bdc9d195960da1b6064820152608490fd5b34610104575f36600319011261010457604051604081019080821067ffffffffffffffff8311176102125761020e91604052601981527f4d6f636b205375706572546f6b656e2053747265616d696e67000000000000006020820152604051918291825b602060409281835280519182918282860152018484015e5f828201840152601f01601f1916010190565b600435906001600160a01b038216820361010457565b602435906001600160a01b038216820361010457565b60025481039081116105f7575f5460015482810292600160ff1b81145f8312166105f75781840514901517156105f7575f82820192831291129080158216911516176105f75790565b634e487b7160e01b5f52601160045260245ffdfea26469706673582212206162099b10d2fd55e88f11eeb06f128bdd09e5536b98e60d249657753294aa5564736f6c634300081e0033","linkReferences":{}},"methodIdentifiers":{"allowance(address,address)":"dd62ed3e","approve(address,uint256)":"095ea7b3","balanceOf(address)":"70a08231","base()":"5001f3b5","decimals()":"313ce567","downgradeTo(address,uint256)":"83ba2525","name()":"06fdde03","rate()":"2c4e722e","realtimeBalanceOf(address,uint256)":"eb3537cc","realtimeBalanceOfNow(address)":"2ec8eec7","setStream(int256,int256,uint256)":"142c6314","symbol()":"95d89b41","t0()":"c116690c","totalSupply()":"18160ddd","transfer(address,uint256)":"a9059cbb","transferFrom(address,address,uint256)":"23b872dd"},"id":43}